:100000008031192800002030850004308400000869
:10001000031918280530F800F701F70B0D28F80B25
:100020000C282E30F700F70B13281628800B0A280F
:10003000080078302100990023008C0122009201F1
:1000400091019401930121000C1122000C11200058
:10005000A2016430A10021000C1122000C15200027
:100060002208A300A30AA30303193A28FF30A4001F
:10007000032033282108A400032021000C112200B2
:100080000C1120002208A300A30AA30303194C2883
:10009000FF30A400032045282108A40003202B28BA
:0200A0006300FB
:020000040001F9
:06000E00DC3FFF1E9F3FD6
:00000001FF
;PIC12F1612
;CRC=1124  CREATED="24-sep.-23 19:51"
